:100000000C942A000C9434000C9434000C943400AA
:100010000C9434000C9434000C9434000C94340090
:100020000C9434000C9434000C9434000C94340080
:100030000C9434000C9434000C9434000C94340070
:100040000C9434000C9434000C9434000C94340060
:100050000C94340011241FBECFE5D8E0DEBFCDBF25
:100060000E9436000C9452000C94000084B381600E
:1000700084BB85B3816085BB23E18BEB91E221508A
:1000800080409040E1F700C0000085B38E7F85BBC3
:1000900023E18BEB91E2215080409040E1F700C0DA
:0800A0000000E7CFF894FFCF48
:00000001FF
